:020000040800F2
:10000000704500207D020008D12000084719000833
:100010002D200008DD0300082D2800080000000046
:10002000000000000000000000000000C101000806
:10003000ED0300080000000015020008B1210008CF
:10004000970200089702000897020008970200082C
:100050009702000897020008EF030008FD0300085C
:10006000030400089702000809040008970200082A
:1000700097020008970200089702000897020008FC
:1000800097020008970200089702000897020008EC
:10009000E103000897020008970200080F04000817
:1000A00097020008C522000897020008970200087E
:1000B000D122000897020008970200089702000862
:1000C00097020008970200089702000897020008AC
:1000D000970200089702000897020008970200089C
:1000E000F50300089702000897020008DD220008C7
:1000F000970200089702000897020008970200087C
:10010000970200089702000897020008970200086B
:10011000970200089702000897020008970200085B
:10012000970200089702000897020008970200084B
:10013000970200089702000897020008970200083B
:10014000970200089702000897020008970200082B
:10015000970200089702000897020008970200081B
:10016000970200089702000897020008970200080B
:10017000970200089702000897020008000000009C
:1001800097020008970200089702000897020008EB
:1001900097020008970200089702000897020008DB
:1001A000000000000000000097020008DFF80CD0FB
:1001B00000F002F900480047292B00087045002094
:1001C0002B4B19680868B0E8F04F80F30988BFF33B
:1001D0006F8F4FF0000080F311887047000000001F
:1001E00006480068006880F3088862B661B6BFF30D
:1001F0004F8FBFF36F8F00DF00BF00BF08ED00E03F
:10020000DFF80C00016841F470010160704700BF25
:1002100088ED00E0EFF30980BFF36F8F144B1A688D
:100220001EF0100F08BF20ED108A20E9F04F10607B
:1002300008B44FF0500080F31188BFF34F8FBFF325
:100240006F8F03F081F94FF0000080F3118808BC34
:1002500019680868B0E8F04F1EF0100F08BFB0EC46
:10026000108A80F30988BFF36F8F704700BF00BF0B
:1002700048000020EFF305807047000006488047E3
:1002800006480047FEE7FEE7FEE7FEE7FEE7FEE77B
:10029000FEE7FEE7FEE7FEE771220008AD01000879
:1002A0002DE9F05F0546002092469B4688460646AB
:1002B000814640241BE0284641464746224600F03E
:1002C0006AF853465A46C01A914110D3114618464F
:1002D000224600F051F82D1A67EB01084F462246DE
:1002E0000120002100F048F817EB00094E41201EC4
:1002F000A4F10104DFDC484631462A464346BDE806
:10030000F09F00000649074A0868504343F239024B
:1003100010440860400870470149086070470000B9
:10032000E40000206D4EC64140EA01039B0703D064
:1003300009E008C9121F08C0042AFAD203E011F824
:10034000013B00F8013B521EF9D2704730B50B4615
:10035000014600202022012409E021FA02F59D42F5
:1003600005D303FA02F5491B04FA02F52844151EC9
:10037000A2F10102F1DC30BD202A04DB203A00FAB0
:1003800002F1002070479140C2F1200320FA03F3EC
:10039000194390407047202A04DB203A21FA02F0EA
:1003A0000021704721FA02F3D040C2F120029140AF
:1003B0000843194670470000064C074D06E0E06808
:1003C00040F0010394E8070098471034AC42F6D39C
:1003D000FFF7F0FE5C3900087C390008FEE70000FA
:1003E000014800F019B80000EC000020704701201F
:1003F00000F03EBA4FF4805000F03ABA022000F00C
:1004000037BA042000F034BA102000F031BA4FF4AB
:10041000007000F02DBA70472DE9F05F05460068C6
:1004200000244669D0F804908768D0F80CB0D0F862
:1004300010A0D0F81880F10748D0F90714D0012196
:100440008160B80703D5284600F0D1F90CE07807A1
:1004500002D54FF4006407E0380702D54FF480540A
:1004600002E0284600F0C2F9F80516D529684FF4D5
:1004700080708860B80503D5284600F0BAF90CE012
:10048000780502D544F4005407E0380502D544F459
:10049000804402E0284600F0ABF9F80316D529683D
:1004A0004FF480308860B80303D5284600F0A3F9E4
:1004B0000CE0780302D544F4004407E0380302D589
:1004C00044F4803402E0284600F094F9300707D560
:1004D0005FEACB6004D52968102044F40074C8603A
:1004E00070074FF0080707D55FEA0B7004D528683E
:1004F000C760284600F048F9B00706D52868C068EC
:10050000800702D0284600F040F9700607D55FEA60
:10051000CA6004D52968102044F480640861B006DC
:1005200007D55FEA0A7004D528680761284600F0FD
:100530002DF9F00606D528680069800702D0284604
:1005400000F025F9B00308D55FEAC96005D5296830
:1005500010204860284600F01BF9F00307D55FEA39
:10056000097004D528684760284600F045F9300432
:1005700046D55FEA497040D5F00504D55FEAC870FA
:1005800001D044F00104B00504D55FEA887001D5BC
:1005900044F00204700504D55FEA487001D544F0C8
:1005A0000404300529D518F0700F26D008F070002B
:1005B000402815D006DC102809D020280AD0302881
:1005C00016D10AE050280ED0602811D10EE044F078
:1005D00008040DE044F010040AE044F0200407E0B1
:1005E00044F0400404E044F0800401E044F48074EA
:1005F0002868816921F070018161296804204860C0
:10060000002C05D0686A204368622846FFF703FF84
:10061000BDE8F09F70B5040003D094F8200010B13D
:1006200004E0012070BD204600F082F820680168D7
:1006300021F00201016000F017FA0546052604E0EA
:1006400000F012FA401B0A2811D820684068800781
:10065000F6D42068016841F00101016000F004FA5D
:1006600005460BE000F000FA401B0A2806D9606A34
:1006700040F40030606284F82060D2E7206840686F
:10068000C007EFD0207E0128206801683DD021F00E
:1006900080010160607E01282068016838D021F067
:1006A00040010160A07E01282068016833D021F05C
:1006B00020010160E07E0128206801682ED041F011
:1006C00010010160207F01282068016829D021F0F5
:1006D00008010160607F01282068016824D021F0B2
:1006E00004010160D4E902010843D4E90412114372
:1006F00008436168491E08432168C86100206062A0
:10070000012084F82000002070BD41F08001C0E786
:1007100041F04001C5E741F02001CAE721F0100196
:10072000CFE741F00801D4E741F00401D9E7000028
:1007300000B50068114987B088421DD110480021DA
:10074000026842F0007202600068022200F000704D
:1007500005900320CDE90210CDE9000209200490A4
:100760006946084800F090F800220521142000F0A6
:100770002BFA142000F01CFA07B000BD0064004002
:1007800040380240000C0240704770477047704785
:100790007047000070B5044690F82000012804D08E
:1007A000606A40F40020606218E0022084F82000B3
:1007B0002068016821F00101016000F055F905464B
:1007C0000EE000BF00F050F9401B0A2808D9606A0B
:1007D00040F400306062052084F82000012070BDE4
:1007E00020684068C007EDD1606270BD70477047F7
:1007F00070477047704770477047000070B50446F7
:1008000000F032F90546601C02D004480078044428
:1008100000F02AF9401BA042FAD370BD140000205A
:100820000121102812D005DC01280BD002280CD1A0
:100830000A480CE0B0F5007F0DD0B0F5805F04D120
:10084000074804E0074802E0417070470648C27854
:10085000002AF9D170470548F9E700009C00002004
:10086000940000208C0000209000002098000020C0
:10087000044910B50A68024202D00860FFF7D0FFB1
:1008800010BD0000143C01402DE9F84FDFF890B195
:1008900000224FF001084FF0030A4FF00F090BF14F
:1008A000040E00BF0B6808FA02F42340A3426ED185
:1008B0004D68022D01D0122D0ED1D50800EB850C0C
:1008C000DCF820505607F70E09FA07F6B5430E6913
:1008D000BE402E43CCF82060066855000F790AFA16
:1008E00005FC07F0030726EA0C06AF403743076014
:1008F0004E68012E05D0022E03D0112E01D0122EEB
:100900000ED18768CE6827EA0C07AE403E4386606A
:100910004668A6430C79C4F3001494403443446001
:10092000C4688E6824EA0C04AE402643C6604C6856
:10093000E4006FD53B4C256845F48045256024686C
:1009400022F0030504F480440094374C2E19D6F8A5
:10095000084895072F0F09FA07F5AC43334DA84215
:1009600001D100252EE0324DA84201D1012529E018
:10097000304DA84201D1022524E02F4DA84201D1DB
:1009800003251FE02D4DA84202D104251AE041E0C5
:100990002B4DA84201D1052514E02A4DA84201D1D2
:1009A00006250FE0284DA84201D107250AE0274D72
:1009B000A84201D1082505E0254DA84201D109250D
:1009C00000E00A25BD402543C6F80858DBF8004082
:1009D0005D464E689C43F60300D51C432C60DEF850
:1009E000004075464E689C43B60300D51C432C60FE
:1009F0000B4D08352C684E689C43F60200D51C430D
:100A00002C60074D0C352C684E689C43B60200D50F
:100A10001C432C60521C102AFFF444AFBDE8F88F31
:100A2000003C0140443802400030014000000240D8
:100A30000004024000080240000C02400010024086
:100A40000014024000180240001C02400020024036
:100A5000002402400069084000D0012070470AB11C
:100A6000816170470904FBE7014880687047000016
:100A700014000020024881680278114481607047A8
:100A8000140000200B4810B5016841F400710160AA
:100A9000016841F480610160016841F48071016086
:100AA000032000F0B1F8002000F006F800F03EF856
:100AB000002010BD003C024010B5014688B0002265
:100AC000192000F081F8192000F072F81348002472
:100AD000016841F001010160006805A900F0010012
:100AE0000690684600F03AF900F06EF90C494000B3
:100AF000B0FBF1F10C480B4A491E026040F2E732AC
:100B0000C0E90324C0E9011400F0CAFC10B10120BF
:100B100008B010BD044800F00FFDF9E7443802406A
:100B200040420F00000001400C0200201F4808B5A1
:100B3000016841F480410160006800F48040009049
:100B40001A48001F016841F080510160006800F000
:100B500080500090032000F057F8002211466FF0FB
:100B60000B0000F031F8002211466FF00A0000F08F
:100B70002BF8002211466FF0090000F025F8002242
:100B80001146501F00F020F800221146101F00F0FF
:100B90001BF800220F21901E00F016F800220F21F2
:100BA000BDE80840501E00F00FB800004438024075
:100BB00000F01F02012191404009800000F1E02077
:100BC000C0F8001170470000F0B40E4B1B680C46D3
:100BD000C3F30223C3F10705042D00D90425191D11
:100BE000072901D2002300E0DB1E012606FA05F1E9
:100BF000491E214099409E40761E16403143F0BC6C
:100C000001F067BA0CED00E0064900F00702086841
:100C10004FF6FF03184040EA0220034A10430860E1
:100C2000704700000CED00E00000FA052DE9F047E8
:100C30000E46050065D0DFF81481D8F80000F7B241
:100C400000F00F00B04207D288F80070D8F800001A
:100C500000F00F00B04254D128683D4C810712D5F6
:100C6000400703D5206840F4E05020602878000752
:100C700003D5206840F4604020602068A96820F017
:100C8000F000084320602878C0072DD030496868FC
:100C90000839012812D0022813D0032811D009687E
:100CA000890700292DDA216821F003010143216021
:100CB000FFF7DAFE814641F2883A0EE009688903BF
:100CC000EFE709688901ECE7FFF7CEFEA0EB090129
:100CD000514502D90320BDE8F0872068696800F01B
:100CE0000C00B0EB810FEFD1D8F80010404601F0B6
:100CF0000F01B14207D90770006800F00F00B04241
:100D000001D00120E7E72878400705D52068E96889
:100D100020F4E050084320602878000706D52068BA
:100D2000296920F4604040EAC100206000F05CF8CE
:100D30002168084AC1F30311515CC84006490860A4
:100D40000020FFF7B9FE0020C5E70000003C02408C
:100D5000083802400C390008200000200F220260F1
:100D60000C4A136803F003034360136803F0F003B5
:100D70008360136803F4E053C36012684FF4E053D8
:100D800003EAD20202610448006800F00F00086024
:100D90007047000008380240003C024001480068EB
:100DA00070470000200000200448054900680968D9
:100DB000044AC1F38221515CC840704720000020E2
:100DC000083802401C3900080448054900680968D1
:100DD000044AC1F34231515CC840704720000020F2
:100DE000083802401C390008154810B5006810F09A
:100DF0000C02144813D01449042A0FD0082A0ED12B
:100E00000F4C241F2268236802F03F025B0207D5C3
:100E10002068C0F38810A0FB010106E0084610BD61
:100E20002168C1F38811A1FB00010023FFF738FA04
:100E30002168C1F30141491C4900B0FBF1F010BD2C
:100E4000083802400024F400001BB7002DE9F84FD9
:100E5000050076D02878DFF8F8B2BE4CC00749D03C
:100E6000DBF800105846C1F38101012908D0006861
:100E7000C0F3810002280AD1201D0068400206D577
:100E80002068800336D568680028E2D032E06868C0
:100E9000B0F5803F10D0B0F5A02F206810D020F41E
:100EA00080302060206820F4802020606868A0B135
:100EB000FFF7DAFD06460CE0206840F48030F4E7E6
:100EC00040F480202060F7E7FFF7CEFD801B642808
:100ED00073D820688003F7D50CE0FFF7C5FD064600
:100EE00005E000BFFFF7C0FD801B6428F0D8206834
:100EF0008003F7D42878DFF8608280074FF000097C
:100F00003ED5DBF80010584611F00C0F09D00068F0
:100F1000C0F3810002280BD18D48001F00684002F9
:100F200006D42068800715D5E868012809D111E0AA
:100F3000E868B8B10120C8F80000FFF795FD064643
:100F400005E002E1FFF790FD801B0228C0D8206871
:100F50008007F7D52068296920F0F80040EAC10031
:100F600020600DE0C8F80090FFF77EFD064604E023
:100F7000FFF77AFD801B02281FD820688007F7D46E
:100F80002878000722D5724E744869696C3671B1B1
:100F900001210160FFF768FD074604E0FFF764FDEB
:100FA000C01B022809D830688007F7D50EE0C0F8CA
:100FB0000090FFF759FD074605E083E0FFF754FD79
:100FC000C01B02287ED830688007F7D428784007F5
:100FD00068D5DFF87CA100270AF1380ADAF80000AA
:100FE000C0000BD4DAF8001041F08051CAF80010AC
:100FF000DAF80000012700F080500090584E306869
:10100000C00510D4306840F480703060FFF72CFDCC
:10101000009005E0FFF728FD0099401A022851D8FA
:101020003068C005F6D54A4EA868683601280FD04A
:101030000528306810D020F001003060306820F0C2
:1010400004003060A868B8B1FFF70EFD00900FE013
:10105000306840F00100F4E740F004003060F7E74A
:10106000FFF702FD0099411A41F28830814264D8AD
:1010700030688007F4D50EE0FFF7F6FC009007E03B
:10108000FFF7F2FC0099411A41F28830814254D8AE
:1010900030688007F4D42FB1DAF8001021F08051C5
:1010A000CAF80010A869C0B3DBF80010C1F38101D1
:1010B00002294AD00228484607D0C8F86000FFF746
:1010C000D3FC00E039E005463AE04746C8F8600046
:1010D000FFF7CAFC064604E0FFF7C6FC801B0228A7
:1010E0002BD820688001F7D4D5E907010843A96A05
:1010F0001C4A490802EB01416A6A41EA821108432D
:1011000095F82C1040EA01611148001F0160012090
:101110003866FFF7A9FC054605E014E0FFF7A4FCDC
:10112000401B022809D820688001F7D50BE000BFDA
:10113000FFF79AFC401B022802D90320BDE8F88F74
:1011400020688001F4D40020F8E70120F6E70000D1
:10115000083802400038024000004742800E4742F3
:10116000007000400000FFFF70B5040005D00025AE
:10117000A56294F8510010B106E0012070BD84F81A
:101180005050204600F030F8022084F851002068CA
:10119000016821F040010160D4E901010843D4E96C
:1011A00003121143084361690843218B01F4007164
:1011B0000843E1690843216A0843A16A084321689A
:1011C0000860A069042101EA1040616A08432168AF
:1011D00048602068C16921F40061C1616565012032
:1011E00084F85100002070BD00B500680E4987B03A
:1011F000884217D10D480021026842F48012026033
:10120000006800F4801005904FF460700090022098
:10121000CDE90101032003900520049069460448AC
:10122000FFF732FB07B000BD0050014044380240D8
:10123000001402402DE9F84F044690F850000026B3
:101240000A9F9A4693460D464FF0010801280ED09A
:10125000012084F85000FFF707FC814694F8510004
:10126000616801280CD0B1F5827F07D102E002202D
:10127000BDE8F88FA16809B9042801D00226BDE0B5
:1012800055B1BBF1000F07D0BAF1000F04D094F8AC
:101290005100012802D004E00126AFE0052084F8C7
:1012A000510000206065C4F838B0A4F83EA0A4F84E
:1012B0003CA02563A4F836A0A4F834A020646064A0
:1012C00020680168490603D4016841F040010160CB
:1012D000E068B0F5006F606804D0E8B3E08E0128E4
:1012E0003BD06AE010B1E08E01282ED1216835F89C
:1012F000020BC860E08E401EE08626E0B8F1000FC9
:101300000DD0E08E58B120688168890707D535F87F
:10131000021BC160E08E401EE0864FF00008E08FA7
:1013200058B120688168C90707D0C0682BF8020B44
:10133000E08F401EE0874FF00108781C05D0FFF7D2
:1013400093FBA0EB0900B84246D2E08E0028D5D12D
:10135000E08F0028D2D136E0FFE7216815F8010BB5
:101360000873E08E401EE08627E000BFB8F1000F52
:101370000DD0E08E58B120688168890707D515F82F
:10138000011B0173E08E401EE0864FF00008E08FE5
:1013900058B120688168C90707D0C0680BF8010BF5
:1013A000E08F401EE0874FF00108781C05D0FFF762
:1013B0005BFBA0EB0900B8420ED2E08E0028D5D12D
:1013C000E08F0028D2D13B46012202212046CDF8F1
:1013D000009000F09EFE08B103260FE04A46394611
:1013E000204600F086FE18B101262020606505E049
:1013F000A06818B92068C16880680090012084F84E
:101400005100002084F85000304631E74FF0E021D1
:101410000428086903D020F004000861704740F0F8
:101420000400FAE710B5401EB0F1807F01D301201F
:1014300010BD4FF0E02460610F21601700F049FEFD
:101440000020A06107202061002010BD7047704778
:1014500030B590F83820012A20D0012280F83820B9
:10146000022380F8393003685C6824F070045C6003
:1014700003685C680D682C435C6003689C6824F01A
:1014800080049C6003689C6849680C439C6080F8F9
:101490003920002180F83810084630BD022030BDC8
:1014A00010B5040003D094F8390010B107E0012012
:1014B00010BD002084F83800204600F00DF802200E
:1014C00084F83900211D206800F00EFF012084F807
:1014D0003900002010BD000008B501681448B1F1C2
:1014E000804F14D0134A914220D1016841F040014D
:1014F00001600068002200F04000009005212B20D0
:10150000FFF762FB2B20BDE80840FFF751BB0168E5
:1015100041F0010101600068002200F0010000902C
:1015200005211C20FFF750FB1C20ECE708BD000044
:1015300040380240001800400168CA6842F00102C9
:10154000CA600068016841F0010101600020704735
:1015500070B5044690F83800012817D0012584F8AA
:101560003850022084F839002068826822F077021F
:1015700022F47F4282600868502837D00DDC202892
:1015800059D005DC88B3102841D151E0022070BD4C
:10159000302853D040283AD13FE060282ED0702820
:1015A0000BD0B0F5805F03D0B0F5005F2FD110E015
:1015B0002068816821F0070115E0CB68D1E901219D
:1015C000206800F0F1FE2168886840F077008860AC
:1015D0001DE0CB68D1E90121206800F0E5FE20681C
:1015E000816841F48041816011E01EE0CA68496869
:1015F000206800F0EBFE5021206806E0CA684968C8
:10160000206800F0F4FE6021206800F0D7FE84F826
:101610003950002084F8380070BDCA6849682068D5
:1016200000F0D4FE40212068EFE700212068ECE7BD
:1016300010212068E9E720212068E6E730212068B2
:10164000E3E7704770B50446006801694FF0000594
:10165000C943890715D4C168C943890711D4E91E54
:10166000016101202076206880698007204602D031
:10167000FFF7E7FF04E000F098F8204600F096F846
:10168000257620680169C943490717D4C168C94351
:10169000490713D46FF0040101610220207620680D
:1016A000806910F4407F204602D0FFF7CAFF04E0B3
:1016B00000F07BF8204600F079F825762068016973
:1016C000C943090716D4C168C943090712D46FF08A
:1016D00008010161042020762068C0698007204647
:1016E00002D0FFF7AEFF04E000F05FF8204600F004
:1016F0005DF8257620680169C943C90617D4C16819
:10170000C943C90613D46FF0100101610820207687
:101710002068C06910F4407F204602D0FFF791FF97
:1017200004E000F042F8204600F040F825762068FA
:101730000169C943C90708D1C168C943C90704D1B0
:10174000891E0161204600F033F820680169C94311
:10175000090609D4C168C943090605D46FF08001A0
:1017600001612046FFF772FE20680169C9434906FE
:1017700009D4C168C943490605D46FF0400101612D
:10178000204600F01FF820680169C94389060BD480
:10179000C168C943890607D46FF020010161204662
:1017A000BDE87040FFF753BE70BD70477047000042
:1017B00000680349884201D1FFF75CB97047000017
:1017C00000000140704770B5040004D094F839005F
:1017D000002510B106E0012070BD84F83850204685
:1017E00000F022F8242084F839002068C16821F430
:1017F0000051C160204600F091FE2068016921F48B
:10180000904101612068416921F02A01416120680D
:10181000C16841F40051C160E563202084F83900BB
:1018200084F83A00002070BDF0B5144F06681449E2
:101830000222012303240725124887B0BE4209D1A2
:101840000E6846F480260E60096801F48021059137
:1018500021020BE00C4FBE420DD10E6846F400365B
:101860000E60096801F40031059160218DE83E00A9
:101870006946FFF709F807B0F0BD000000480040D6
:1018800040380240000C0240004400402DE9F8437B
:10189000044690F839001F4616460D46202850D1C0
:1018A000A5B19EB194F8380001284AD0012084F8EF
:1018B00038004FF00008C4F83C80212084F839003B
:1018C000FFF7D2F8A6848146E68426E00120BDE831
:1018D000F883E08C401EE084A0684B46B0F5805F42
:1018E0004FF000024FF080012046009703D000F037
:1018F0006BFFE8B90DE000F067FFC8B928882168E0
:10190000C0F308004860206908B16D1C05E0AD1CFB
:1019100003E0216815F8010B4860E08C0028D8D15D
:101920004B46002240212046009700F04DFF08B1B1
:101930000320CCE7202084F8390084F83880002088
:10194000C5E70220C3E7FEE77FB500240E22694603
:101950003B2000F0EDF8BDF8000041BA26480180B8
:10196000BDF8021049BA4180BDF8041049BA81801F
:10197000BDF8061049BAC180BDF8081049BA018106
:10198000BDF80A104ABA4281BDF80C1049BA0DB22E
:1019900000F18C018581CB880B818B88CB804B88B3
:1019A0008B800B884B800A805FF0000231F8123088
:1019B000521C2344D2B21CB2052AF7D3052694FB4D
:1019C000F6F141810C4900239631CA880A818A8840
:1019D000CA804A888A800A884A800D804FEA0302BA
:1019E00031F81240521C2344D2B21BB2052AF7D35D
:1019F00093FBF6F181817FBDB84000202DE9F041D5
:101A000086B00025142232496846FEF78DFC64201A
:101A1000FEF7F4FE752000F063F82E4C6E46207041
:101A200006EB4500417816F8150000F0AFF80120EC
:101A3000FEF7E4FE6D1CEDB20A2DF1D3264E002513
:101A400006F1280706F14008FFF77EFFB6F90C0003
:101A5000052D00EE100A07EB8500B8EEC00A80EDF8
:101A6000000AB6F90A0000EE900A08EB8500F8EECD
:101A7000E00AC0ED000A94ED021A30EE010A84ED8E
:101A8000020A94ED031A70EE810AC4ED030A17D11D
:101A9000B1EE081A1048C0EE011A1430BDEEE10A8A
:101AA00010EE101A80EE810A8181BDEEC00A10EEA0
:101AB000101A9FED0A0A418184ED020A84ED030A9F
:101AC0006D1CEDB2062DBFD306B00020BDE8F0813D
:101AD00024390008AC000020B840002000000000BD
:101AE000F8B5104E0446002240213046FEF7B7FFFD
:101AF00044F080000C4C3725E21C20710123511C5E
:101B00000A480095FFF796FBE21C0123511C074889
:101B10000095FFF78FFB012240213046FEF79FFF23
:101B2000E078F8BD00140240AC000020480200201C
:101B3000F8B5134F15460E4604460022402138469C
:101B4000FEF78DFF0F4944F080003724887128315B
:101B5000A1F123020870012322390B480094FFF7FA
:101B600069FB08492B463246283107480094FFF7A5
:101B700061FB012240213846FEF771FF0020F8BDCD
:101B800000140240AC00002048020020F8B5114FBC
:101B90000E460446002240213846FEF760FF04F05E
:101BA0007F000D4C3725621CA0700123511C0B488F
:101BB0000095FFF73FFBA670621C0123511C0748EC
:101BC0000095FFF737FB012240213846FEF747FF1B
:101BD0000020F8BD00140240AC00002048020020A4
:101BE000104810B50E4901600621416000214FF4F4
:101BF00080328160C0E903124FF4401242610176E5
:101C000041768176C17601774177FEF703FD0028A2
:101C100005D0BDE810404F2103A000F06FBE10BDFD
:101C200000640040EC0000202E2E2F5372632F63BF
:101C3000616E2E630000000010B594B014221649A6
:101C40006846FEF771FB0021684600F0ADFF134CBB
:101C5000114914222060143105A8FEF765FB00210C
:101C600005A800F0A1FF0C496060142228310AA8E1
:101C7000FEF75AFB00210AA800F096FF0649A06073
:101C800014223C310FA8FEF74FFB00210FA800F0F3
:101C90008BFFE06014B010BDBC38000804000020C9
:101CA0002DE9F0476B4886B00024016841F010012F
:101CB0000160016801F010010591016841F0020125
:101CC0000160016801F002010591016841F008011D
:101CD0000160016801F008010591016841F480711B
:101CE0000160016801F480710591016841F02001F3
:101CF0000160016801F020010591016841F0800157
:101D00000160016801F080010591016841F0040162
:101D100001600068504F00F004000590002260212F
:101D20003846FEF79CFEDFF8349100220221484637
:101D3000FEF795FEDFF828A100220C215046FEF7A1
:101D40008EFE484D41F21000CDE90005694602942F
:101D50003846FEF799FD602001264FF00308CDE9D3
:101D60000006CDE9024869463846FEF78DFD70024F
:101D7000CDE90005694602943B48FEF785FD0096D3
:101D8000CDE9015469464846FEF77EFD0227CDF8AD
:101D90000C800097CDE9016469464846FEF774FD62
:101DA0000C20CDE90006CDE9024869465046FEF711
:101DB0006BFD0097CDE9015469462C48FEF764FDA0
:101DC00000972B4ECDE9015469463046FEF75CFD85
:101DD0000097CDE9015469465046FEF755FD0420B1
:101DE000CDE90005694602943046FEF74DFD00221C
:101DF00005210620FEF7E8FE0620FEF7D9FE0022A8
:101E000005210720FEF7E0FE0720FEF7D1FE0022A5
:101E100005210820FEF7D8FE0820FEF7C9FE0022A3
:101E200005210A20FEF7D0FE0A20FEF7C1FE00229F
:101E300005211720FEF7C8FE1720FEF7B9FE002285
:101E400005212820FEF7C0FE2820FEF7B1FE06B0CF
:101E5000BDE8F08730380240001002400014024014
:101E6000000802400000211000200240000402404F
:101E700000000240114810B50F4901604FF4827113
:101E8000416000218160C1604FF400720161C0E9CE
:101E900005123022C0E90721416281620A21C16234
:101EA000FFF762F9002805D0BDE81040492104A0E1
:101EB00000F024BD10BD0000005001404802002089
:101EC0002E2E5C5372635C7370692E6300000000F9
:101ED0001FB510480E490160542141600021816006
:101EE000C1600161FFF7DCFA18B166210AA000F0B9
:101EF00005FD4FF48050009069460648FFF728FB27
:101F0000002803D06C2104A000F0F8FC1FBD0000E5
:101F100000180040500100202E2E2F5372632F74A2
:101F2000696D2E630000000010B5154886B04FF0B3
:101F300080410024C0E900148460C4600461FFF79C
:101F4000AFFA18B149210FA000F0D8FC4FF480502F
:101F5000009069460A48FFF7FBFA18B14F2109A023
:101F600000F0CCFC049404A905480594FFF770FA2E
:101F7000002803D0562103A000F0C0FC06B010BD1D
:101F8000140100202E2E2F5372632F74696D2E635F
:101F9000000000000D4810B50B4901604FF4E1311D
:101FA0004160002181600C22C160C0E9041281619E
:101FB000C161FFF708FC002805D0BDE81040902162
:101FC00003A000F09BBC10BD00440040CC010020E9
:101FD0002E2E2F5372632F75736172742E6300005F
:101FE0000D4810B50B4901604FF4E131416000210B
:101FF00081600C22C160C0E904128161C161FFF7F8
:10200000E2FB002805D0BDE810407C2103A000F0D1
:1020100075BC10BD004800408C0100202E2E2F53AF
:1020200072632F75736172742E630000FEE7000007
:10203000012202210148FEF712BD000000140240F7
:10204000002202210148FEF70ABD000000140240F0
:10205000012220210148FEF702BD000000100240CD
:10206000002220210148FEF7FABC000000100240C7
:10207000012240210148FEF7F2BC0000001002409E
:10208000002240210148FEF7EABC00000010024097
:10209000012204210148FEF7E2BC000000080240D2
:1020A000002204210148FEF7DABC000000080240CB
:1020B000012208210148FEF7D2BC000000080240BE
:1020C000002208210148FEF7CABC000000080240B7
:1020D00070470907090E002806DA00F00F0000F12A
:1020E000E02080F8141D704700F1E02080F8001413
:1020F000704738B50B46009204460022802100F05C
:1021000008F8002804D0606D40F0200060650320CE
:1021100038BD2DE9F0411D4617460E460446DDF850
:10212000188035E0681C33D02DB1FEF79DFCA0EB84
:102130000800A8422CD32068416821F0E0014160EA
:102140006068B0F5827F0BD1A068B0F5004F02D077
:10215000B0F5806F04D12068016821F04001016072
:10216000A06AB0F5005F0AD1206801684DF6FF72E1
:10217000114001602068016841F4005101600120B4
:1021800084F85100002084F850000320BDE8F0815D
:102190002068806836EA000004D00020B842C1D12F
:1021A0000020F3E70120F9E7012000F0E5FCFBE760
:1021B00010B500F0EFFC04480168491C01600348B9
:1021C0000168491C016010BD00000020880000204B
:1021D00030B5254893B00025016841F08051016079
:1021E000006800F0805011902048016841F440419F
:1021F00001600068022400F440401190012000902A
:10220000000401908001CDE906400C2008904FF4B5
:10221000A870CDE9090404200B906846FEF716FE6D
:1022200000B1FEE70CA90F2081E831004FF4A05067
:102230000F904FF48050109005210CA8FEF7F6FC8B
:1022400000B1FEE7FEF7AAFD4FF47A71B0FBF1F0A2
:10225000FFF7E8F80420FFF7D9F800220F21501EFD
:10226000FEF7B2FC13B030BD4038024000700040B1
:102270001048016841F4700101600F48016841F0A5
:10228000010101600C4A00210832116002680B4B09
:102290001A400260031D0A4A1A60026822F4802272
:1022A000026005480C300160024958068039086018
:1022B0007047000088ED00E000380240FFFFF6FEA6
:1022C000103000240148FFF7BDB900000C020020C7
:1022D0000148FFF7B7B90000140100200148FFF7DB
:1022E000B1B9000050010020F0B50268234B244D25
:1022F000244E254F254C4FF0804C984209D0604524
:1023000007D0A84205D0B04203D0B84201D0A042C5
:1023100004D122F0700E4A6842EA0E0298421BD0A5
:10232000604519D0A84217D0B04215D0B84213D09A
:10233000A04211D0164DA8420ED0164DA8420BD087
:10234000154DA84208D0154DA84205D0144DA842FD
:1023500002D0144DA84203D122F44075CA682A4322
:1023600002608A68C2620A688262984201D0A04212
:1023700001D10969016301214161F0BD0000014003
:102380000004004000080040000C00400004014030
:102390000040014000440140004801400018004056
:1023A000001C00400020004010B5846842EA03226F
:1023B00024F47F440A432243826010BD826822F0E5
:1023C00070020A4342F007018160704710B5036A4A
:1023D000046A24F001040462846924F0F00444EAED
:1023E000021423F00A020A438461026210BD10B590
:1023F000036A23F0100303628369046A23F47043C1
:1024000043EA023224F0A00343EA0111826101622F
:1024100010BD000008B5642000F0AEFB01F082F9A9
:1024200000900E480068FDF777FFFFF721FE0C498A
:10243000012005248870C870A1F11005FDF762FF26
:1024400090FBF4F104FB1100401C687000F0F0F9FF
:102450003221684600F097FBF0E700000000002002
:1024600094000020074C084D617808A000F048FA5D
:1024700002212846FEF7EEFA6062C82000F07CFBDD
:10248000F2E7000084000020000402402564000000
:102490002DED028B82B001F045F91C4D9FED1A8A9B
:1024A0001B4E1C4F4FF0FF0805F120044FF0FE09B2
:1024B000CDF80000FFF748FAF0EE480AC5ED070A2C
:1024C000B6F90C00404200EE100A1248B8EEC00AFD
:1024D00000F082FB97ED140A0A230422BDEEC00A25
:1024E00010EE100A688084F80080010A6170A07004
:1024F000064984F8039020310748FFF7C7F90A21FD
:10250000684600F040FBD5E7000016448400002038
:10251000B8400020903F0020CC0100202DE9F04180
:1025200004460068016921F44052E16811430161E9
:102530002168C86849F20C6290432369A268E56982
:102540001A4363692B431A430243CA6021684869EE
:1025500020F44072A06910434861E1696425B1F537
:10256000004F9748974A21684FF032083FD0914278
:1025700001D081427CD1FEF727FC00EBC00101EBCA
:10258000001061688900B0FBF1F6FEF71DFC00EB5E
:10259000C00101EB001061688900B0FBF1F0B0FBF5
:1025A000F5F06FF01801484306EB800108EB0110CD
:1025B000B0FBF5F000F0F006FEF706FC00EBC00102
:1025C00001EB001061688900B0FBF1F0B0FBF5F0A1
:1025D00006EB0016FEF7F8FB00EBC00101EB001064
:1025E00061688900B0FBF1F7FEF7EEFBD2E09142A3
:1025F00001D081423DD1FEF7E7FB00EBC00101EBCA
:10260000001061684900B0FBF1F0B0FBF5F0060185
:10261000FEF7DAFB00EBC00101EB00106168490036
:10262000B0FBF1F7FEF7D0FB00EBC00101EB0010AF
:1026300061684900B0FBF1F0B0FBF5F06FF01801F4
:10264000484307EB800108EBC100B0FBF5F000F058
:10265000F80006EB4006FEF7B7FB00EBC00101EB0C
:10266000001061684900B0FBF1F7FEF7ADFB3CE0FC
:1026700055E0FEF799FB00EBC00101EB001061682B
:102680004900B0FBF1F0B0FBF5F00601FEF78CFB62
:1026900000EBC00101EB001061684900B0FBF1F7ED
:1026A000FEF782FB00EBC00101EB001061684900FE
:1026B000B0FBF1F0B0FBF5F06FF01801484307EB09
:1026C000800108EBC100B0FBF5F000F0F80006EB6C
:1026D0004006FEF769FB00EBC00101EB00106168EA
:1026E0004900B0FBF1F7FEF75FFB00EBC00101EB27
:1026F000001061684900B0FBF1F0B0FBF5F06FF03D
:102700001801484307EB800108EBC100B0FBF5F06E
:1027100000F00700216830448860BDE8F081FEF7D2
:1027200043FB00EBC00101EB001061688900B0FBC6
:10273000F1F6FEF739FB00EBC00101EB0010616818
:102740008900B0FBF1F0B0FBF5F06FF018014843E1
:1027500006EB800108EB0110B0FBF5F000F0F0068D
:10276000FEF722FB00EBC00101EB0010616889005D
:10277000B0FBF1F0B0FBF5F006EB0016FEF714FB32
:1027800000EBC00101EB001061688900B0FBF1F7BC
:10279000FEF70AFB00EBC00101EB00106168890045
:1027A000B0FBF1F0B0FBF5F06FF01801484307EB18
:1027B000800108EB0110B0FBF5F000F00F00A9E775
:1027C00000140140001001402DE9F04198461746E1
:1027D0000E460446069D1DE0681C1BD02DB1FEF779
:1027E00043F9A0EB0800A84214D92068C16821F47D
:1027F000D071C1602068416921F001014161202050
:1028000084F8390084F83A00002084F83800032066
:10281000BDE8F0812068006836EA000004D000209E
:10282000B842D9D00020F3E70120F9E7FEE7000025
:102830002DE9F041304D002401266878A5F1080704
:1028400068B1E87858B10A2000F096F9687830B19C
:10285000FFF7F6FBEC70AE7000F0C0FC7C60264D1C
:102860002D1D687868B1E87858B10A2000F084F925
:10287000687830B1FFF7F4FBEC70AE7000F0AEFC9E
:102880007C601D4D0835687868B1E87858B10A2039
:1028900000F072F9687830B1FFF7F2FBEC70AE70BF
:1028A00000F09CFC7C60144D0C35687868B1E878C9
:1028B00058B10A2000F060F9687830B1FFF7F0FBFA
:1028C000EC70AE7000F08AFC7C600B4D10356878BF
:1028D00000280FD0E87800280CD00A2000F04CF92E
:1028E0006878002806D0FFF7EBFBEC70AE7000F0C4
:1028F00075FC7C60BDE8F0818C000020FEE70000E4
:102900000FB4054B10B503A9044A029800F018F85B
:1029100010BC5DF814FB0000C12A0008E80000208C
:1029200002E008C8121F08C1002AFAD17047704798
:10293000002001E001C1121F002AFBD170470000F6
:102940002DE9FF4F89B09B460446002506E0252867
:102950000BD05A460B999047641C6D1C20780028B8
:10296000F5D10DB02846BDE8F08F0027B84601220A
:10297000474900E0074314F8013F203B02FA03F007
:102980000842F7D120782E2819D114F8010F47F00A
:1029900004072A280ED06FF02F022078A0F1300112
:1029A00009290CD808EB880102EB410100EB010872
:1029B000641CF2E70A98641C50F8048B0A90207893
:1029C0000028CED0642808D0692806D075281ED0EB
:1029D0005A460B9990476D1C58E00A994FF00A0926
:1029E00001C90A91002802DA40422D2102E039058E
:1029F00004D52B218DF82010012103E0F90704D024
:102A00002021F7E78A4608AE0DE00021FAE70A998F
:102A10004FF00A0901C90A91F7E74946FDF796FC0C
:102A2000303106F8011D0028F7D1ADEB060000F1AA
:102A30002009780701D44FF00108C84502DDA8EB52
:102A4000090000E000208046002706E008A85A465A
:102A5000C05D0B9990476D1C7F1C5745F6DB04E069
:102A600030205A460B9990476D1CB8F10001A8F12F
:102A70000108F5DC05E016F8010B5A460B99904762
:102A80006D1CB9F10001A9F10109F4DC641C65E7D2
:102A900009280100D0ED000AF4EEC00AF1EE10FAA8
:102AA00001DD80ED000AD0ED000AB1EE400AF4EE3F
:102AB000C00AF1EE10FA01D280ED000A7047000062
:102AC00013B56423012269460248FEF7DFFE009831
:102AD0001CBD00008C01002010B5FFF7B1FA1148B1
:102AE000002444708470C470FFF7BAFA0D48001DCA
:102AF00044708470C470FFF7C3FA0A480830447009
:102B00008470C470FFF7CCFA06480C3044708470AF
:102B1000C470FFF7D5FA0348103044708470C47055
:102B200010BD00008C000020FDF7ACFFFFF750FB4C
:102B3000FFF7B6F8FFF754FAFFF72CFAFFF7C8F9DA
:102B4000FFF7F2F9FFF74CF8FFF794F94FF47A70BA
:102B5000FDF754FE0448FDF71DFEFEF74FFFFFF79B
:102B60006BF800F012F8FEE7EC00002001460020B0
:102B7000842900D0C81C704710B500B9012000F0AE
:102B800081FC002010BD8120704710B500F0A0FC32
:102B9000002010BD10B500F0B7FD012803D0BDE83E
:102BA000104000F06FBD10BD3EB504460D46B0F9B3
:102BB0000800FFF7DBFF02A9CDE90001208A2B46C0
:102BC00082B2D4E9001000F073FD012801D000208A
:102BD0003EBD02983EBD000000B530EEC01A80ED4B
:102BE000080AC0ED050A80ED0B1AD0ED191A01464E
:102BF0009FED692A30EEC00AF5EEC01AB1EE400A28
:102C0000F1EE10FA0ED0B5EEC01AF1EE10FA02DDB8
:102C1000F0EE410A01E0F0EE400AF4EEE10AF1EED6
:102C200010FA12DCD1ED1A0AF5EEC00AF1EE10FA34
:102C30000ED0B5EEC01AF1EE10FA01DDB0EE410A89
:102C4000B4EEE00AF1EE10FA02D2B0EE420A00BD94
:102C5000C86E01F13402032802D0042838D07AE08B
:102C600091ED000A104620EE010A81ED0C0A91ED6B
:102C70000D0AD1ED010A00EE810A81ED0D0A91EDF8
:102C80000A0AD1ED020A31EE400A20EE200A81ED57
:102C90000E0A91ED1D0AB8EE400AFFF7FBFE91ED1A
:102CA0000C0AD1ED0D0A01F1500030EE200AD1EDF1
:102CB0000E0A30EE200A81ED140A91ED1C0AB8EEDE
:102CC000400AFFF7E7FE91ED140A81ED150A42E094
:102CD00091ED0A0AD1ED001A104671EE400A60EE3D
:102CE000A10AC1ED0C0AD1ED010A60EE810AC1ED25
:102CF0000D0AF0EE000A00EE601A91ED090AD1ED1E
:102D0000020A31EE000A20EE200A81ED0E0A91ED52
:102D10001D0AB8EE400AFFF7BDFE91ED0C0AD1ED99
:102D20000D0A01F15C0030EE200AD1ED0E0A30EE02
:102D3000200A81ED160AD1ED180A30EE800A81EDE5
:102D4000170A91ED1C0AB8EE400AFFF7A3FE91EDB9
:102D5000170A81ED180A91ED0A0A81ED090A91ED31
:102D60000B0A81ED0A0A91ED070A81ED060A91ED41
:102D7000080A81ED070A91ED040A81ED030A91ED3D
:102D8000050A81ED040AC86E032802D091ED170AE6
:102D900000BD91ED140A00BD000000002DE9F041D6
:102DA000184C0F460546E6682068001D00F0B4FA8E
:102DB00038B9206890F82C1001208840216981439F
:102DC0002161681C07D137B12168BDE8F0410E4888
:102DD000091D00F0D9BA20683544B5424560216824
:102DE00005D2A06BBDE8F041091D00F0B5BA606BDB
:102DF000091D00F0B1FAA06A854200D2A562BDE8C3
:102E0000F0810000480000207C3F00202DE9F041C7
:102E1000054600F0C5FA2E4CA068401CA060206852
:102E20002C4F10B1606940B32DE02560A0680128E7
:102E300029D1002606EB860007EB800000F07EFA21
:102E4000761C072EF6D323488C3000F077FA214801
:102E5000A03000F073FA1F48B43000F06FFA1D483C
:102E6000C83000F06BFA1B48DC3000F067FA1948F4
:102E70008C3060631430A06305E02068E96AC06AA2
:102E8000884200D82560606A401C6062E96A0120BF
:102E9000226988401043206101EB810007EB80002C
:102EA000291D00F071FA00F09BFA606900280CD02F
:102EB0002068E96AC06A884207D207494FF080500B
:102EC0000860BFF34F8FBFF36F8FBDE8F081000044
:102ED00048000020A03E002004ED00E070B5114E37
:102EE000114C17E000F028FB3068B8B100F084FC0A
:102EF00000F056FAF068C568281D00F00DFAA068C9
:102F0000401EA0606068401E606000F069FA2846BC
:102F100000F00CF860680028E4D170BD00F06CFC93
:102F2000F8E70000683F00204800002010B5044684
:102F3000006B00F069FA2046BDE8104000F064BA6A
:102F400010484FF47051420706D0C01D0D4920F0C3
:102F50000700411AC1F570510B4A00230144C2E930
:102F600000030839103A21F0070111604B600B6033
:102F70000B1AC0E9001393604FF000405360D0601B
:102F800070470000A002002034000020074C4FF0E2
:102F90008056074DFFF7A2FF20680128FAD92E605E
:102FA000BFF34F8FBFF36F8FF4E70000A03E002008
:102FB00004ED00E02DE9F0479A46DDE909848146F9
:102FC0006FF00303206B03EB82021044089D20F096
:102FD0000706700707D0502080F31188BFF34F8F8A
:102FE000BFF36F8FFEE723180A5C83F834200A5C76
:102FF00012B1401C1028F6D3002784F84370072D27
:1030000000D30625E562C4E91157201D00F0A1F99F
:1030100004F1180000F09DF92461C5F10700646215
:10302000A061E76484F8507052464946304600F08B
:10303000BFF82060B8F1000F01D0C8F80040BDE82B
:10304000F087000030B5114900E011460A6882425D
:10305000FBD34B685C18844203D140681844486035
:10306000084643681C18944209D1084C103C246857
:10307000A24209D052681A4442600A68126802608B
:10308000814200D0086030BD0460F9E734000020C0
:103090000648416B096829B1416BC968C96849682C
:1030A000816270474FF0FF31FAE7000048000020CE
:1030B00008484068401C4FF0500080F3118804D04D
:1030C000BFF34F8FBFF36F8FFEE7BFF34F8FBFF399
:1030D0006F8FFEE73C0000202DE9F04105460027F8
:1030E00000F02AFA314E306808B9FFF729FFF0687E
:1030F00005424BD1C5B3083568070ED005F007006F
:10310000C0F108000544680707D0502080F31188FB
:10311000BFF34F8FBFF36F8FFEE72DB3706885420B
:1031200034D82248103001460C6801E020460C4695
:103130006168A94202D221680029F7D131688C4226
:1031400024D007682168016060680837411B102996
:103150000FD96019420708D0502080F31188BFF3BF
:103160004F8FBFF36F8FFEE710E041606560FFF7A0
:1031700069FF61687068401A7060B268904200D25E
:10318000B060F06801430020C4E9000100F034FBA6
:10319000780707D0502080F31188BFF34F8FBFF31B
:1031A0006F8FFEE73846BDE8F08100002400002064
:1031B00010B5031F4FF080741C601B1F21F001012C
:1031C0001960191F044B0B6014390A60091F6FF056
:1031D000020244380A6010BDB13000082DE9F04702
:1031E000FDF790F84FF0050A90FBFAF2324C0AFB1B
:1031F0001200401C04F108052E1D2070371D04F13B
:10320000140804F118092978C0B2814201D1A978C3
:1032100011B33178814201D1B178E9B13978814275
:1032200001D1B978C1B198F80020824202D198F852
:10323000021089B199F80020824202D199F8020067
:1032400050B100F03BF8FDF75DF890FBFAF20AFB95
:103250001200401C2070D6E72078012406280AD2EC
:10326000DFE800F009030B121921FEF7E1FE1E2032
:10327000FFF782FCEC70BDE8F087FEF7E9FE1E2048
:10328000FFF77AFCF470F6E7FEF7F2FE1E20FFF778
:1032900073FCFC70EFE7FEF7FBFE1E20FFF76CFCF3
:1032A00088F80340E7E7FEF703FF1E20FFF764FC02
:1032B00089F80340DFE7000084000020154810B5BE
:1032C0008078002825D01348001D8078002820D061
:1032D00010480830807800281BD00E480C308078C9
:1032E000002816D00B4810308078002811D0FEF747
:1032F0009FFEFEF7ADFEFEF7BBFEFEF7C9FEFEF732
:10330000D7FE4FF47A60FFF737FCBDE81040FFF7B7
:10331000E3BB10BD8C000020D0E9013201699A6046
:10332000D0E901235A604A68824201D182684A602A
:10333000002202610868401E0860704700F1080121
:103340004FF0FF32C0E90112C1600161002101604C
:10335000704700210161704730B50B685A1C02D0DC
:1033600000F1080202E0026904E022465468256880
:103370009D42FAD953684B6099608A605160086138
:103380000168491C016030BD42684A6093688B60E7
:1033900093685960916008610168491C0160704739
:1033A000502080F31188BFF34F8FBFF36F8F0A490E
:1033B0004868401C486001280CD10848006810F09B
:1033C000FF0F07D0502080F31188BFF34F8FBFF35A
:1033D0006F8FFEE7704700003C00002004ED00E026
:1033E0000849486828B1401E486001D180F311881F
:1033F0007047502080F31188BFF34F8FBFF36F8F5A
:10340000FEE700003C00002070B5002827D0144DD6
:10341000A0F108046168E868014207D1502080F3F8
:103420001188BFF34F8FBFF36F8FFEE722683AB169
:10343000502080F31188BFF34F8FBFF36F8FFEE7EB
:103440008143616000F078F86068696808446860EA
:103450002046FFF7F7FDBDE8704000F0CDB970BD24
:103460002400002006484FF47A710068B0FBF1F1A7
:103470004FF0E020491E41610721016170470000C3
:103480002000002010B5020014D00F48006B38B1A6
:10349000502080F31188BFF34F8FBFF36F8FFEE78B
:1034A00000F04AF800211046FFF778FC00F0A4F97C
:1034B000002807D105494FF080500860BFF34F8FB7
:1034C000BFF36F8F10BD00004800002004ED00E046
:1034D0001CB515480024CDE900402346802213A1E5
:1034E000144800F0E5F8012809D0401C1AD15020FA
:1034F00080F31188BFF34F8FBFF36F8FFEE750202B
:1035000080F31188BFF34F8FBFF36F8F06484FF0E2
:10351000FF312C38816201214161C460BDE81C404B
:1035200000F040B81CBD00007400002049444C4528
:10353000000000008D2F00080248016B491C016348
:1035400070470000480000201448016B11B10121B0
:10355000C16170470021C1610169B1FA81F1C1F116
:103560001F0101EB81020E4951F822306BB101EBD2
:10357000820101F108034A6852684A609A4201D107
:1035800052684A60D16801607047502080F311880A
:10359000BFF34F8FBFF36F8FFEE70000480000209E
:1035A000A03E00201CB532480168324A914207D142
:1035B000502080F31188BFF34F8FBFF36F8FFEE76A
:1035C00000682C49491E884207D1502080F3118899
:1035D000BFF34F8FBFF36F8FFEE727490878019045
:1035E000FF20087008788DF800009DF800009DF815
:1035F000002000F0F000904207D0502080F31188A6
:10360000BFF34F8FBFF36F8FFEE79DF800001B4A9B
:1036100000F0500010700720906005E09DF8003029
:103620005B008DF80030401E9DF800301B06F5D47D
:10363000000200F4E0609060019808700C482030AF
:10364000016841F470010160016841F0704101605E
:10365000FFF708FF00205060FCF7D2FD0848016822
:1036600041F040410160FCF7BBFD00201CBD0000A3
:1036700000ED00E071C20F4100E400E03C000020DA
:1036800034EF00E010B5502080F31188BFF34F8F66
:10369000BFF36F8F00F04CF818B104494FF0805021
:1036A0000860002080F3118810BD000004ED00E0E8
:1036B0002DE9FF5F8346DDE90E87994616468A4667
:1036C0009000FFF709FD05001AD05420FFF704FD14
:1036D000040012D025630021CDE90241CDE9008725
:1036E0004B46324651465846FFF764FC2046FFF7EA
:1036F0008DFB012004B0BDE8F09F2846FFF784FE53
:103700004FF0FF30F6E700000548416919B1006B42
:1037100018B1002070470120704702207047000058
:10372000480000200148C0687047000048000020A1
:103730002DE9F0412E4C0027206B40B1A069401CC0
:10374000A061E06900B101273846BDE8F081E66874
:10375000761CE66013D1606B006838B1502080F3AE
:103760001188BFF34F8FBFF36F8FFEE7606BA16BC4
:103770006163A063206A401C2062FFF789FCA06A95
:10378000DFF87080864209D3606B006880B1606B9F
:10379000C068C568686886420DD2A0622068C06AA9
:1037A00000EB800158F821000128CAD90127C8E799
:1037B0004FF0FF30F1E7281DFFF7AEFDA86A18B102
:1037C00005F11800FFF7A8FDE86A01212269814090
:1037D0001143216100EB800108EB8100291DFFF7F7
:1037E000D3FDE86A2168C96A8842CDD30127CBE7B7
:1037F00048000020A03E00202DE9F0472C4D002479
:103800002746286B38B1FFF7CBFD286B401E286395
:10381000286B40B146E0502080F31188BFF34F8FF2
:10382000BFF36F8FFEE7A968224E0120D1B3A6F146
:10383000B40980463068E8B1F068C46804F1180043
:10384000FFF76AFD201DFFF767FDE06A2A6908FAA5
:1038500000F11143296100EB800109EB8100211D7A
:10386000FFF792FDE06A2968C96A8842E2D3C5F889
:103870001C80DFE70CB1FFF70BFCAC6944B1464696
:10388000FFF756FF00B1EE61641EF9D10020A86178
:10389000E86938B10849012738070860BFF34F8F3E
:1038A000BFF36F8FFFF79CFD3846BDE8F08700003F
:1038B00048000020543F002004ED00E0503900088B
:1038C000A9210008000000000000000080000000A6
:1038D000383900081524000800000000000000002E
:1038E000800000004039000891240008000000001A
:1038F000000000008000000048390008652400082E
:103900000000000000000000800000000000000037
:10391000000000000102030406070809000000007F
:10392000010203046B806B036C001A021B181C104D
:103930001D026A20000000005461736B310000001A
:103940005461736B320000005461736B33000000EC
:1039500064656661756C745461736B007C39000832
:1039600000000020EC00000020290008683A000850
:10397000EC00002084440000302900080000000012
:103980000000000000000000000000000000000037
:103990000100000010000000000000000024F400FE
:1039A0000000000000000000000000000000000017
:1039B000000000000000000000000000AAAAAAAA5F
:1039C00000000000000000000000000000000000F7
:1039D00000000000000000000000000000000000E7
:1039E00000000000000000000000000000000000D7
:1039F00000000000000000000000000000000000C7
:103A000000000000000000000100000002000000B3
:103A1000030000000400000005000000000000009A
:103A20000000000000000000000000000000000096
:103A30000000000000000000000000000000000086
:103A40000000000000000000000000000000000076
:103A5000FF00000000000000000000000000000067
:083A600000000000000000005E
:04000005080001AD41
:00000001FF
